:020000040800F2
:1000000000070020F9050008B1340008B5340008E5
:100010000D350008B5340008E1340008FB05000880
:10002000FB050008FB050008FB050008E942000885
:10003000FB050008FB050008FB050008FB050008A0
:10004000FB050008FB050008FB050008FB05000890
:10005000FB050008FB05000885710008B171000868
:10006000DD7100080972000835720008FB05000800
:10007000FB050008FB050008FB050008FB05000860
:10008000FB050008FB050008FB050008FD2C000827
:10009000252D0008112D0008392D00086172000877
:1000A000FB050008FB050008FB050008FB05000830
:1000B000FB050008FB050008FB050008FB05000820
:1000C000FB050008FB050008FB050008FB05000810
:1000D000FB050008FB05000839730008FB05000854
:1000E000C5720008FB050008FB050008FB050008B9
:1000F000FB050008FB050008FB050008FB050008E0
:10010000FB050008FB0500084D730008FB0500080F
:10011000FB050008FB050008FB050008FB050008BF
:10012000FB050008FB050008FB050008FB050008AF
:10013000FB050008FB050008FB050008FB0500089F
:10014000FB050008FB050008FB050008FB0500088F
:10015000FB050008FB050008FB050008FB0500087F
:10016000FB050008FB050008FB050008FB0500086F
:10017000FB050008D1680008FB050008FB05000826
:10018000FB050008FB050008FB050008FB0500084F
:10019000FB050008FB050008FB050008FB0500083F
:1001A000FB050008FB050008FB050008FB0500082F
:1001B000FB050008FB050008FB050008FB0500081F
:1001C000FB050008FB050008FB050008FB0500080F
:1001D000FB050008BD680008FB050008FB050008DA
:1001E000FB050008FB050008FB050008FB050008EF
:1001F000FB050008FB050008FB050008FB050008DF
:10020000FB050008FB050008FB050008FB050008CE
:10021000FB050008FB050008FB050008FB050008BE
:10022000FB050008FB050008FB050008FB050008AE
:10023000FB050008FB050008FB050008FB0500089E
:10024000FB050008FB050008FB050008FB0500088E
:10025000FB050008FB050008FB050008FB0500087E
:10026000FB050008FB050008FB050008FB0500086E
:10027000FB050008FB050008FB050008FB0500085E
:10028000FB050008FB050008FB050008FB0500084E
:10029000FB050008FB050008FB050008FB0500083E
:1002A000C51A0008812E000811300008C930000866
:1002B000ED30000800000000D0400B1CD1409C46EF
:1002C000203AD34018435242634693401843704744
:1002D0009140031C90409C46203A9340194352425F
:1002E0006346D3401943704753B94AB9002908BF40
:1002F00000281CBF4FF0FF314FF0FF3000F07AB9FB
:10030000ADF1080C6DE904CE00F006F8DDF804E06C
:10031000DDE9022304B070472DE9F0478C460D4615
:100320000446089E002B51D18A4217466DD9B2FA75
:1003300082FEBEF1000F0BD0CEF1200C01FA0EF5BB
:1003400020FA0CFC02FA0EF74CEA050C00FA0EF447
:100350004FEA174A250CBCFBFAF81FFA87F90AFB8B
:1003600018CC45EA0C4508FB09F3AB420AD9ED1954
:1003700008F1FF3280F02381AB4240F22081A8F1E6
:1003800002083D44ED1AA4B2B5FBFAF00AFB105581
:1003900044EA054400FB09F9A14509D9E41900F133
:1003A000FF3380F00A81A14540F2078102383C44C6
:1003B000A4EB090440EA08400021002E61D024FA91
:1003C0000EF4002334607360BDE8F0878B4207D9D8
:1003D000002E54D0002186E821000846BDE8F087B1
:1003E000B3FA83F1002940F08E80AB4202D38242FF
:1003F00000F2FA80841A65EB03050120AC46002E5A
:100400003FD086E81010BDE8F08712B90127B7FB8E
:10041000F2F7B7FA87FEBEF1000F34D1EB1B3A0CAE
:100420001FFA87FC0121B3FBF2F8250C02FB1833FD
:1004300045EA03450CFB08F3AB4207D9ED1908F177
:10044000FF3002D2AB4200F2D1808046ED1AA3B257
:10045000B5FBF2F002FB105543EA05440CFB00FC2F
:10046000A44507D9E41900F1FF3302D2A44500F2F4
:10047000B8801846A4EB0C0440EA08409DE73146DA
:100480003046BDE8F087CEF1200405FA0EF307FAF6
:100490000EF720FA04F83A0C25FA04F448EA0308A7
:1004A000B4FBF2F14FEA184502FB11441FFA87FC36
:1004B00045EA044501FB0CF3AB4200FA0EF409D9FE
:1004C000ED1901F1FF3080F08A80AB4240F2878065
:1004D00002393D44EB1A1FFA88F5B3FBF2F002FB38
:1004E000103345EA034500FB0CF3AB4207D9ED1985
:1004F00000F1FF386FD2AB426DD902383D44EB1AA0
:1005000040EA01418FE7C1F1200722FA07F88B404A
:1005100005FA01F448EA030320FA07FE4FEA134CF8
:10052000FD404EEA040EB5FBFCF94FEA1E440CFBFD
:1005300019551FFA83F844EA054509FB08F4AC4253
:1005400002FA01F200FA01FA08D9ED1809F1FF30B8
:1005500043D2AC4241D9A9F102091D442D1B1FFA17
:100560008EFEB5FBFCF00CFB10554EEA054400FB7B
:1005700008F8A04507D9E41800F1FF3529D2A045B5
:1005800027D902381C4440EA0940A4EB0804A0FB28
:1005900002894C45C6464D4615D312D056B1BAEB2A
:1005A0000E0364EB050404FA07F7CB401F43CC406D
:1005B000376074600021BDE8F0871846F8E6904681
:1005C000E0E6C245EAD2B8EB020E69EB030501385A
:1005D000E4E72846D7E7404691E78146BEE7014673
:1005E00078E702383C4445E7084608E7A8F10208E6
:1005F0003D442BE7704700BF02E000F000F8FEE743
:1006000072B6394880F30888384880F3098838483A
:100610004EF60851CEF20001086040F20000CCF224
:1006200000004EF63471CEF200010860BFF34F8F28
:10063000BFF36F8F40F20000C0F2F0004EF6885119
:10064000CEF200010860BFF34F8FBFF36F8F4FF002
:100650000000E1EE100A4EF63C71CEF20001086097
:10066000062080F31488BFF36F8F05F0C5FB06F0FA
:1006700063FB4FF055301F491B4A91423CBF41F884
:10068000040BFAE71C49194A91423CBF41F8040B9C
:10069000FAE71A491A4A1B4B9A423EBF51F8040B1B
:1006A00042F8040BF8E700201749184A91423CBF72
:1006B00041F8040BFAE705F0E3FB06F0BDFB144C30
:1006C000144DAC4203DA54F8041B8847F9E700F0F4
:1006D00041F8114C114DAC4203DA54F8041B884721
:1006E000F9E705F0CBBB0000000700200023002045
:1006F000000000080001002000070020187B00080F
:1007000000230020B0230020B023002044830020D9
:10071000A0020008B4020008B4020008B4020008F5
:100720002DE9F04F2DED108AC1F80CD0D0F80CD087
:10073000BDEC108ABDE8F08F002383F311882846B2
:10074000A047002004F0D8FEFEE704F029FE00DFF9
:10075000FEE70000F8B5314C6FF0740300252370FC
:100760001A236570A570E57025716571A571E57135
:1007700025726572A372E57201F0EAFA20B10E23C8
:1007800025726572A372E57205F0BCFA064605F0A3
:100790002DFB044678BB224B9E422CD001339E4257
:1007A0002CD026F0FF021F4B9A422AD1274642F254
:1007B0001075F0B200F0BAFD00F0C8FF00F0BCFD0B
:1007C00018B334B1184B9E4203D0002505F006FB48
:1007D0002F46002005F0A0FA0FB100F06FF801F0ED
:1007E0006BFB00F0D7FF01F0EDF9284600F02AF985
:1007F00000F064F8F9E727460025DDE70546012704
:10080000DAE7074641F28835D6E714B1064B9E4237
:10081000DBD10020002505F07FFAE0E7B0230020BF
:10082000010007B0000008B0263A09B008B501F091
:1008300095F9A0F120035842584108BD054B07B572
:100840001B88022101A8ADF8043001F0A5F903B01E
:100850005DF804FBBC75000810B5202383F31188F4
:100860001248C3680BB104F0E3FE0023104A4FF4B2
:100870007A710E4804F08AFE002383F311880D4C30
:10088000236813B12368013B2360636813B1636875
:10089000013B6360084B1B7833B9636823B90220BE
:1008A00001F072FA3223636010BD00BFBC23002048
:1008B00059080008D8240020D0230020574B58495D
:1008C0002DE9F04153F8042F013201D1BDE8F08148
:1008D0008B42F7D1534C544B22689A4240F29C8091
:1008E000524B9B6803F1006303F500339A4280F09A
:1008F000938005F047FA05F059FA002001F08CF9D1
:1009000002204B4B187001F031FA4A4BD3F8E82023
:100910000022C3F8E820D3F81011C3F81021D3F84F
:100920001011D3F8EC10C3F8EC20D3F81411C3F86D
:100930001421D3F81411D3F8F010C3F8F020D3F831
:100940001811C3F81821D3F81811D3F8801041F00A
:100950000061C3F88010D3F8801021F00061C3F863
:100960008010D3F88010D3F8801041F00071C3F8E4
:100970008010D3F8801021F00071C3F88010D3F8F4
:10098000803072B62C4B2D490B601D682468BFF374
:100990004F8FBFF36F8F2A4BC3F88420BFF34F8F65
:1009A0005A6922F480325A61BFF34F8FD3F8802006
:1009B00043F6E07EC2F3C906C2F34E32B7075201D6
:1009C00002EA0E0838463146013948EA000C00F1C7
:1009D0004040B1F1FF3FC3F874C2F5D1203A12F1A3
:1009E000200FEDD1BFF34F8FBFF36F8FBFF34F8F4A
:1009F000BFF36F8F5A6922F400325A610022C3F8A4
:100A00005022BFF34F8FBFF36F8F202383F31188E2
:100A1000AD4685F308882047BDE8F081FCFF01085A
:100A20001C00020804000208FFFF0108B023002098
:100A3000D0230020004402580000020808ED00E026
:100A400000ED00E02DE9F04F99B0B94D2022FF21D3
:100A5000009010A8AC6801F0D1F9B64A019513785E
:100A6000A3B90121B4481170C360202383F3118816
:100A7000C3680BB104F0DCFD0023B04A4FF47A7177
:100A8000AD4804F083FD002383F31188009BAC4A3A
:100A900003B113600026AB4B009DB2463746B1460A
:100AA0001E7056600293012001F060F9002D00F0E5
:100AB0002582A34B1B68002B40F0208219B0BDE8B3
:100AC000F08F0220FFF7B2FE002840F01082009B5A
:100AD00002210BA8002E08BF1D469B4B1B88ADF8BA
:100AE0002C3001F059F8DEE74FF47A7001F036F857
:100AF000B0F10008EBDB0220FFF798FE0028E6D0FB
:100B000008F1FF38B8F1040F00F2F381DFE808F0D4
:100B1000031E2124270018A80523042140F8343D92
:100B200001F03AF801234FF0000903FA08F848EA07
:100B30000A0A5FFA8AFA01F0B5F927B10AF00B0345
:100B40000B2B08BF0025FFF779FEACE7042178489E
:100B5000E6E704217D48E3E704217D48E0E74FF024
:100B60001C09484609F1040901F058F804210B90CA
:100B70000BA801F011F8B9F12C0FF2D1D2E7002F38
:100B8000A5D00AF00B030B2BA1D10220FFF74EFEDC
:100B9000804600289BD001206A4E01F03DF80027D6
:100BA0000220307001F0E2F85FFA87FB584601F04E
:100BB00043F8054688B15846013701F04DF8002842
:100BC000F2D146460025634B02210BA847461B88FD
:100BD000ADF82C3000F0E0FF65E701232C46022041
:100BE000337001F0B7F8019B9B689C4206D2204607
:100BF00001F014F80130E4D10434F4E70024029B3E
:100C0000464647461C7025464D4B5C6093E7002FD7
:100C10003FF45DAF0AF00B030B2B7FF458AF0220BB
:100C2000029B187001F0A2F8322000F097FFB0F19B
:100C3000000BFFF64CAF1BF003087FF448AF019B9D
:100C400004EB0B0299688A423FF641AFBBF5807F07
:100C50003FF63DAF404AD84503920FDA4FF47A7021
:100C600000F07CFF049004990029FFF630AF04994E
:100C7000039A08F8021008F10108ECE7C820FFF712
:100C8000D5FD804600283FF422AF1F2C11D8C4F1B7
:100C9000200710AB24F003002F495F45184428BFFC
:100CA0005F463A4601F082F83A46FF212A4801F0B1
:100CB000A5F84FEAAB0328492046DAB2039301F0C6
:100CC000A5F8074600283FF47EAF039B04EB83049E
:100CD00031E70220FFF7AAFD00283FF4F8AE00F04C
:100CE000D5FF00283FF4F3AE4FF000084346019AC9
:100CF0009268904532D2B8F11F0F12D8109A013283
:100D00000FD028F0030218A90A4452F8202C0B92A5
:100D1000184604220BA908F1040802F015FC03464A
:100D2000E5E74046039300F079FF039B0B90EFE764
:100D3000B0230020D4240020BC2300205908000840
:100D4000D8240020D0230020BE750008B423002042
:100D5000B8230020C0750008D423002018A804215F
:100D600040F84C3D00F018FFE5E618A80023642188
:100D700040F8343D00F006FF00287FF4A8AE0220C2
:100D8000FFF754FD00283FF4A2AE0B9800F076FF69
:100D900018AB43F8480D04211846E3E718A80023D0
:100DA000642140F8343D00F0EDFE00287FF48FAE62
:100DB0000220FFF73BFD00283FF489AE0B9800F0BE
:100DC0005FFF18AB43F8440DE5E70220FFF72EFD67
:100DD00000283FF47CAE00F069FF18AB43F8400DEB
:100DE000D9E70220FFF722FD00283FF470AE0BA9DF
:100DF000142000F061FF804618A8042140F83C8DC3
:100E000000F0CAFE41460BA8ACE7322000F0A6FE77
:100E1000B0F10008FFF65BAE18F0030F7FF457AE99
:100E2000019A08EB0903926893423FF650AE022004
:100E3000FFF7FCFC00283FF44AAE28F00308C84442
:100E4000C1453FF478AE484609F1040900F0E6FEDA
:100E500004210A900AA800F09FFEF1E74FF47A708F
:100E6000FFF7E4FC00283FF432AE00F00FFF00284B
:100E700042D0109B01330BD0082210A9002000F0B3
:100E8000C5FF002838D02022FF2110A800F0B6FFAF
:100E9000FFF7D4FC384804F035FB0FE6002F3FF491
:100EA00016AE0AF00B030B2B7FF411AE18A800232B
:100EB000642140F8343D00F065FE804600287FF450
:100EC00006AE0220FFF7B2FC00283FF400AE03900C
:100ED000FFF7B4FC41F28830454604F013FB0B9851
:100EE00001F024F800F0DEFF039B1F46DBE5074618
:100EF00021E64FF00009EAE5B84664E6002000F07C
:100F00002DFE0490049B002B01DA00F08FFC049B63
:100F1000002BFFF6CBAD012000F01CFF049B213B12
:100F2000122B3FF6C0AD01A252F823F0C30A00080D
:100F3000E90A00087F0B0008A70A0008A70A0008B2
:100F4000A70A00080F0C00080B0E0008D30C0008BD
:100F50006B0D00089D0D0008CB0D0008A70A0008C6
:100F6000E30D0008A70A00085D0E0008370B000813
:100F7000A70A00089D0E0008A0860100094949F251
:100F800069000B689AB21B0C00FB0233064A0B6027
:100F900044F25061136898B21B0C01FB00301060E2
:100FA00080B27047042300200023002010B50021E8
:100FB0001022044600F022FF034B03CB2060616047
:100FC0001868A06010BD00BF00E8F11FF0B51F4C0D
:100FD000BBB002F0B5FAA368C31AF92B2FD906AD3E
:100FE0002346A06028220021284602F02DFF04F1AC
:100FF0000E0000F0FBFE0023C6B2591D5F1CDBB2E1
:10100000C900B34207DA0E3308222846234402F00F
:101010001BFF3B46F1E70123207BC1F3CF01049581
:1010200003930823059101460293094B0948019354
:101030003023009303A3D3E9002302F03FFD3BB02C
:10104000F0BD00BF78F6339F93CACD8D205E00209F
:101050002D5E0020F83400202DE9F0410D4CDFF822
:101060003C800D4FA4F5815545F8088C237E3BB993
:1010700066692EB1304602F0DBF8304606F0B2F970
:10108000083D204602F0D4F8A4F5A454AF42E9D1BB
:10109000BDE8F081C859002020350020F87600080E
:1010A00070B50D4614461E4602F0B0FC50B9022E33
:1010B0000ED1012C0CD112A3D3E90023C5E90023E2
:1010C000012070BD052C14D003D8012C09D00020BC
:1010D00070BD282C09D0302CF9D10BA3D3E9002303
:1010E000ECE70BA3D3E90023E8E70BA3D3E9002344
:1010F000E4E70BA3D3E90023E0E700BFAFF30080F0
:10110000401DA12026812A0B78F6339F93CACD8DEE
:101110009E6AC421818A46EE26417272DF25D7B7C6
:10112000F017304A39059E5638B50D460446034639
:1011300020222846002102F087FE227923462846F5
:10114000032A4FF0200128BF032203F8042F0222B4
:1011500002F07AFE627923462846072A4FF02201E0
:1011600028BF072203F8052F032202F06DFEA279A3
:1011700023462846072A4FF0250128BF072203F8F7
:10118000062F032202F060FE284604F10803102215
:10119000282102F059FE382038BD00002DE9F04F1B
:1011A000ADF5037D40F2791280460F4623AE10ADB7
:1011B0000021002430460DF1620900F01FFE482294
:1011C0000021284600F01AFE02F0BAF94FF47A72B4
:1011D000544B6C74B0FBF2F0186093E807000123E5
:1011E00085E807000DF162002B74FFF7DFFE8B230B
:1011F0004D4985F8213007AB85F82040184606F0A8
:10120000D1F9222228643146284685F83C20FFF790
:101210008BFF14AB044601460822304602F014FE50
:1012200008220DF151033046A11804F1880A02F09A
:101230000BFE0DF15203082204F11001304604F5B3
:10124000847B02F001FE15AB202204F11801304628
:1012500002F0FAFD16AB402204F13801304602F0EC
:10126000F3FD18AB082204F17801304602F0ECFDE2
:101270000DF16103082204F18001304602F0E4FD23
:1012800051460AF1080A4B460822304609F1010985
:1012900002F0DAFDD345F3D104F588744FF000096C
:1012A0001DAB08225946304602F0CEFD95F8343089
:1012B0004B4510D84FF0000995F83C304B4515D9F7
:1012C0002B6C2146082230464B44083402F0BCFD0A
:1012D00009F10109F0E7AB6B2146082230464B4487
:1012E000083402F0B1FD09F10109DFE7E31DF97EE1
:1012F00004961937C3F3CF034046059300230393A5
:101300007B78019702930123009304A3D3E9002380
:1013100002F0D4FB0DF5037DBDE8F08F9E6AC42179
:10132000818A46EEE024002060760008014B1870A8
:10133000704700BFEC240020324BF0B51C7B85B019
:1013400034B10E22304B1A810024204605B0F0BD86
:101350002E4A02AB1068516803C308232C492D485C
:101360000DEB030206F06EF8054630B90A22264B53
:1013700029481A8101F0EAFCE6E70169B1F5F01F9E
:1013800006D90B22204B25481A8101F0DFFCDCE74F
:10139000438B8B2B08D00C211B4A214811818B22B7
:1013A000194601F0D3FCD0E71E4A024402F11003B3
:1013B000994204D21022144B1B481A81E5E71039D8
:1013C00020468E1A134902F0BFF805F118010746AE
:1013D0003246204602F0B8F8AB689F4202D1EB6873
:1013E00098420AD00D22084B1A813B4600900F48C4
:1013F000EA68A96801F0AAFCA6E70D48012401F0FB
:10140000A5FCA2E7205E0020E0240020C4750008AF
:10141000DCFF1D0000000208CC750008D87500082C
:10142000EA7500080800FEF708760008257600082F
:101430004E7600082DE9F04FADB080460C4606AF61
:1014400002F0E4FA064600285AD1237E022B19D175
:10145000E38A012B16D102F073F80546FFF78EFDE3
:101460004FF4C87305F51675B24AB0FBF3F101FBF2
:101470001300E37E914615FA80F0106033B9002224
:10148000AD4B1A709C37BD46BDE8F08FA38AF5B20C
:101490000136013BAB420CD93B1D691C082220469A
:1014A0001D44C9000023009501F0F80102F09EFBE5
:1014B000ECE707F11400FFF779FD2A4607F1140164
:1014C000381D05F0AFFF03460028D8D10F2D08D8EE
:1014D000994B1D70D9F80030A3F51673C9F8003088
:1014E000D0E707F19802014602F8950D20460092D8
:1014F000072202F07BFBF978404602F07FFAC1E751
:10150000E38A052B00F0038106D8012BBAD12146CE
:101510004046FFF743FEB5E7282B3BD0302BB1D137
:10152000637EE946854D01336A7BDBB2934240F02E
:10153000EC80E27E2B7B9A4240F0E78007F1980333
:1015400000261022204623F8846D314600930123A3
:1015500002F04CFBB4F81480A8F102081FFA88F8D6
:1015600008F1030323F003030A3323F00703ADEB71
:10157000030D0DF1180A3346B11C01369BB2C900A8
:1015800098456CDD5344082220460093002302F066
:101590002DFBF0E7A38A013B9BB2C92B3FF672AF4C
:1015A000664E357B4DBB06F10C03082229462046CA
:1015B00000932B4602F01AFBA38A05F10109EDB254
:1015C000013B4FEAC9019D4209DA0E35002308228A
:1015D0002046354400954D4602F008FBECE7002319
:1015E0000022C6E900230023B36086F8D730C6F88E
:1015F000D830337B0BB9E37E3373002507F1140633
:101600003B1D0822294630467D60BD60FD6002F02A
:101610001BFC3B7A05F10109AB424FEAC90107D92E
:10162000FB68082230462B444D4602F00DFCF0E7E3
:10163000C1F3CF010023E07E1934059104960146E1
:10164000039340466378019402932823009337A3C1
:10165000D3E9002302F032FAFFF7B8FC12E795F85D
:10166000D70000F0E9FAD5F8D83006461BB995F84E
:10167000D70000F0F1FAD5F8D83043449E4204D2A6
:1016800095F8D700013000F0E7FA4FEA980B0024F4
:10169000A0B20134584508DA80002B6801220AEB19
:1016A0000001184400F0B2FBF2E7D5E90023D5F8B9
:1016B000D84012EB080295F8D700444443F10003E8
:1016C000C5F8D840C5E9002300F0B6FA844209D332
:1016D00095F8D730013385F8D730D5F8D8309E1B30
:1016E000C5F8D860B8F1FF0F08DC00232B7300F0B9
:1016F000CDFAFFF721FE08B1FFF7E0F82B68104A9A
:101700009B0A013313810023AB60CD46BAE6BFF3D9
:101710004F8F0C490C4BCA6802F4E0621343CB6054
:10172000BFF34F8F00BFFDE7AFF300802641727219
:10173000DF25D7B7F4340020F1340020205E0020EC
:10174000E024002000ED00E00400FA0508B54FF0A9
:1017500000530C4A196891420BD1597D0A4A0B4833
:101760001170C9221B7D0E30094900F8023C00F0BF
:101770001DFBE02200214FF00050BDE8084000F0C2
:101780003DBB00BF9AAD44C5EC240020205E002084
:101790001600002037B502231A4D01221A491B48B2
:1017A0006B7100F0F9FE1A480122174903681B68A3
:1017B0009847002317494FF480520193164B17485E
:1017C0000093174B02F0F2F8164B197811B1134839
:1017D00002F014F901F0B4FE0446FFF7CFFB4FF41A
:1017E000C87304F51674B0FBF3F202FB13000E4B42
:1017F00014FA80F0186004F0F9FA08B10F232B8175
:1018000003B030BDE024002040420F00203500200E
:10181000A0490020F0240020A1100008F834002086
:1018200035140008EC240020F43400202DE9F04F9A
:1018300093B0DFF86C92974D484602F089F9024662
:1018400000283DD00024014612AF0E9426468DF8A4
:101850004440A0460F941094037B8DF844300FABA6
:1018600051F8040F496803C3136843F0004347F875
:10187000103D2B5905EB040B04F5A454D3F80CA030
:1018800001F060FE844A0023CDF80080121858460B
:101890004B413946D0470028C8BF46F00106B4F591
:1018A000245FE6D17D4C2EB1484602F055F984F80C
:1018B0000080C1E72378072B00F3DD80013323701C
:1018C00000230BAFDFF8F8910A938DF834300B93B7
:1018D0007B600024264601234FF0000812AA002056
:1018E0008DF81C3000212B5905EB040B02F82B8DD1
:1018F000CDE9000107A9D3F804A058464346D047D4
:101900009DF81CA0BAF1000F24D0D9F81430102291
:1019100041460EA883F00103C9F8143000F06EFAB6
:101920002B5908AA0AA91E6958460DF11E03B04793
:101930000FAB564697E8030083E803009DF8343068
:101940000EA957488DF844300A9B0E93DDE9082311
:1019500002F0C2FA04F5A454B4F5245FBBD1002E02
:10196000B7D14F4802F052F800283FD14D4C01F05A
:10197000E7FD2368984239D301F0E2FD0546FFF701
:10198000FDFA4FF4C87305F516758DF82860B0FBA5
:10199000F3F202FB130015FA80F0434D2E7820601D
:1019A00016B901238DF82830C6F110040EA8FFF7F0
:1019B000FDFA0EABE4B20DF129009919062C28BFEF
:1019C00006242246013400F0F1F90AAB0494039393
:1019D000182333480293354B01930123009329A325
:1019E000D3E9002302F014F800232B7001F0A8FDC6
:1019F0002F4A304C1368C31AB3F57A7F30D3106086
:101A000001F0A0FD02460B46254802F0AFF824483D
:101A100001F0FCFF20B3237B0EAD274E002B14BF3B
:101A200003230223737101F08BFD4FF47A7329466F
:101A3000B0FBF3F030603046FFF776FB1823073039
:101A4000039502931D4BC0F3CF00019340F2551351
:101A50000490009312480DA3D3E9002301F0D8FFAE
:101A6000237B0BB1FFF7B2FA237B002B7FF4E1AEAF
:101A700013B0BDE8F08F0A4802F06EF820E700BF0F
:101A8000AFF30080401DA12026812A0BF1C6A7C11B
:101A9000D068080F2035002040420F00055F00206D
:101AA000F8340020F4340020F1340020F034002019
:101AB000005F0020205E0020E0240020045F002062
:101AC0000010025810B5074C204600F0D7FC04F572
:101AD000A45000F0D3FC044A04490020BDE81040A3
:101AE00005F07ABC20350020F85F0020591000086E
:101AF0002DE9F84F4FF47A7507460E4600245543FA
:101B0000DFF85080DFF8509098F900305FFA84FADF
:101B10005A1C01D0A34210D159F82400324639464C
:101B20000368D3F820B02B46D847864205D1084B2E
:101B3000012083F800A0BDE8F88F0134022CE3D126
:101B40004FF4FA7003F0DEFC0020BDE8F88F00BF10
:101B50004C5F0020082300208476000807B500228F
:101B600002AB012103F8012D02461846FFF7C0FF22
:101B700020B19DF8070003B05DF804FB4FF0FF3083
:101B8000F9E700000A46042108B5FFF7B1FF80F02D
:101B90000100C0B2404208BD074B30B41A78074B71
:101BA00053F822400A46014623682046DD69044B6B
:101BB000AC4630BC604700BF4C5F00208476000814
:101BC000A0860100F8B5104C0025104E03F03EFF32
:101BD0000F4F20803068238883420CD800250D4E9B
:101BE0002088013803F02EFF23880544013BB542CD
:101BF0002380F5D9F8BD03F025FF33680544013390
:101C0000BD423360E6D9E9E74E5F0020085F00205F
:101C1000FFFF0100FFFF030003F0E6BF00F10060DB
:101C200000F500300068704700F10060920000F598
:101C3000003003F067BF0000054B1A68054B1B8896
:101C40009B1A834202D9104403F0FCBE0020704767
:101C5000085F00204E5F002038B5074D0446286815
:101C6000204403F0F5FE28B928682044BDE8384038
:101C700003F000BF38BD00BF085F002000207047A0
:101C8000014BC058704700BF00E8F11F064991F8AA
:101C9000243033B100230822086A81F82430FFF78A
:101CA000C3BF0120704700BF0C5F0020014B1868C4
:101CB000704700BF0010005C234BF0B5234C1B683D
:101CC0002788C3F30B0665681B0C94F90820BE42F5
:101CD00028D0A789BE4206D101220C2505FB02446B
:101CE000656894F9082041F20104A3421CD041F236
:101CF0000304A3421AD042F20104A34218D042F2D4
:101D00000304A34208BF5622441E013D0B460C4467
:101D1000A34217D215F9016F581C5EB1034600F8B3
:101D2000016CF5E70022D8E75A22EDE75922EBE7EC
:101D30005822E9E72C2584421D7001D9981C5A705D
:101D4000401AF0BD1846FBE70010005C0C23002091
:101D500000207047022803D10122034B9A6170478B
:101D60000128FCD10222F8E700100258022804D111
:101D70004FF48032034B9A6170470128FCD14FF435
:101D80000032F7E700100258022805D1064A5369CD
:101D900083F00103536170470128FCD1024A536963
:101DA00083F00203F6E700BF00100258002310B5CD
:101DB000934203D0CC5CC4540133F9E710BD00005A
:101DC00030B5441E14F9010F0B4658B193F9005079
:101DD0000131854206D11AB993F90020801A30BD2D
:101DE000013AEFE7002AF7D1104630BD024603461C
:101DF000981A13F9011B0029FAD1704702440346CF
:101E0000934202D003F8011BFAE770472DE9F0472F
:101E1000234C05468846174694F8243083BB2E464B
:101E2000DFF87C90C7B394F824302BB92022FF212F
:101E300048462662FFF7E2FF94F824004146C0F1CD
:101E4000080504EB8000BD4228BF3D465FFA85FAD5
:101E5000AD00A7EB0A072A462E44FFF7A7FF94F828
:101E60002430A844FFB29A445FFA8AFABAF1080F04
:101E700084F824A0D6D1FFF709FF0028D2D108E0CA
:101E8000266A06EB8306B042CAD0FFF7FFFE0028A1
:101E9000C5D10020BDE8F0870120BDE8F08700BF74
:101EA0000C5F0020024B1A78024B1A70704700BF7B
:101EB0004C5F00200823002038B5164C164D2046F4
:101EC00002F0EEFD2946204602F016FE2D6813486A
:101ED000D5F89020D2F8043843F00203C2F8043851
:101EE00003F010FB0E49284602F018FFD5F89020A9
:101EF0000C48D2F804380C49A04223F00203C2F87F
:101F000004384FF4E1330B6003D0BDE8384002F0F1
:101F100025BD38BDA06600208478000840420F002F
:101F2000AC7800087C600020345F002038B50B4B93
:101F300005461A780A4B53F822400A4B9C420CD0B3
:101F4000094B002118221846FFF758FF056001468B
:101F50002046BDE8384002F001BD38BD4C5F00208E
:101F600084760008A0660020345F0020202383F3DD
:101F7000118862B670470000002383F3118862B6AF
:101F80007047000001207047704700007047000054
:101F900041F25143C05C704741F24A43C05C704714
:101FA000F8B5164641F254421F46BDF81850835802
:101FB000013383500B6813F0005406D10B7B082BC0
:101FC00003DC41F24A43C35C83B941F2584283586F
:101FD000013383504FF0FF30F8BD41F2584283582F
:101FE000013383502046FFF7C7FFF8BDFFF7BEFF60
:101FF000436AD3F8C4209202EFD40A68D3F8C440ED
:10200000002AC369C4F30444B4BF42F0804292047E
:1020100003EB04131A600A68520042BF1A6842F0C8
:1020200000521A60220691F80CE042EA0E425A6011
:102030004A689A608A68DA600123426AA340C2F85B
:10204000D03000EB441301F10C0203F58253C3E9D5
:10205000026700EB441303F58253103351F8046B0D
:10206000914243F8046BF9D10A781A7004F18302A3
:10207000520181180B798450012065F30003C5F3E8
:10208000400565F3410303F0FB0343F010036FF3D6
:10209000C3030B71A7E700005020704708B5FFF796
:1020A00065FF41F2744341F27042C35882581344B1
:1020B00041F26C428258134441F258428258134410
:1020C00041F26442825800F5A3501344006818445A
:1020D000FFF752FF08BD000008B5FFF747FF41F2C8
:1020E0003C03C05801F0AEF8BDE80840FFF744BF1C
:1020F0002DE9F84341F24A430446C55C002D40F007
:10210000F880037A032B40F08A802B4628462E461F
:10211000DFB297420EDA01EBC70E51F83770002F8D
:1021200003DBDEF80470002F02DB01360133EFE73A
:102130000130FBE7FFF71AFF636AF0B9D3F88000BC
:1021400040F00200C3F880005020636A002E69D17D
:10215000D3F8802042F00102C3F88020664B674A22
:102160001B6803F1805303F52C539B0093422362B9
:1021700040F2A880624801F0DDF94F283DD8DFF831
:1021800078C14FEA004EDFF87C91DCF800704EEA2F
:10219000870EC3F884E007F1805307444FF0000E28
:1021A00003F52C53C0F15000CCF80070F4469B00AE
:1021B000676AE360D7F8803043F03003C7F88030B7
:1021C000D4F80C805FFA8EF39A42BEDD01EBC307B0
:1021D00051F83330002B0DDB7F68002F0ADA07F04F
:1021E0007F0709EA034347F008473B4348F82C3090
:1021F0000CF1010C0EF1010EE4E79A6922F00102E4
:102200009A6101F09DF90646636A9B69D90704D576
:1022100001F096F9801BFA28F6D9FFF7ADFE2846A3
:10222000BDE8F883B6EB500F3BD2DFF8CCE03704C3
:10223000DEF8000047EA800700EB4606C3F8887026
:1022400000F18053606A03F52C53CEF8006000263D
:102250009B0037462361D0F8803043F00C03C0F870
:102260008030D4F810E0F3B29A427FF777AF51F89C
:10227000330001EBC30C0028DCF8043001DB002B39
:102280000DDB20F0604023F0604340F0005043F04D
:1022900000434EF837000EEBC700013743600136AC
:1022A000E1E79A6922F001029A6101F049F90646D4
:1022B000636A9B69DA07B0D501F042F9801BFA28FE
:1022C000F6D9AAE7626A936923F00103936101F0EA
:1022D00037F90646636A9B69DB0705D501F030F9DB
:1022E000801BFA28F6D998E7012541F24A43E554C4
:1022F00093E7002593E700BF5C5F0020FCB500403A
:10230000B07600080000FF0738B5044600680D46A7
:1023100000F0C2FF1F2809D920222946206801F0B9
:1023200033F8A0F120035842584138BD002038BD91
:102330000022026002734260826070470022002324
:1023400010B5C0E90023002304460C3020F8043CFB
:10235000FFF7EEFF204610BD2DE9F04188B005469D
:1023600041F23C060C4690461F46FFF7FFFD6846CB
:10237000FFF7E4FFA85900F077FF1F2805D80020D9
:10238000FFF7FAFD08B0BDE8F08120226946A859A0
:1023900001F082F82028F2D141F24A43EB5C002B95
:1023A000EDD003AA234605AD1446083303CCAC4256
:1023B00043F8080C43F8041C2246F5D12068186045
:1023C000012022791A71DDE90023C8E90023BDF854
:1023D00008303B80D4E700002DE9F047244B064647
:1023E00000F58157044646F8283B894635460837AC
:1023F00028462035FFF7A2FFBD42F9D141F228035C
:1024000041F2300241F23C0104F5A25AE6504FF489
:10241000805360180AF1100A6B6000230026002721
:10242000A35041F234029846A35001222A74655009
:1024300004F58255027110352846203545E90A67B2
:10244000FFF776FF45F8108C5545F5D141F2504322
:10245000B9F1010F04F8039002DD064801F06AF8B3
:10246000054B204653F829306362BDE8F08700BF72
:10247000F8760008DC760008D4760008044B10B526
:10248000197804464A1C1A70FFF7A6FF204610BDB3
:10249000595F00202DE9F04179B1274F274BB7FB59
:1024A000F1F4994294BF10230923581CB4FBF0FEA9
:1024B00000FB1E4038B1022B02DC0020BDE8F08199
:1024C000013BDBB2F1E70EF1FF36B6F5806FF4D2D7
:1024D000C3EBC30C4FF47A780CF10300C010C5B203
:1024E00001305C1B08FB00F8E4B2204498FBF0F0DC
:1024F00080B2B0F5617F08D90CF1FF354FF0080CC0
:1025000095FBFCF5EDB25B1BDCB22B1903FB0EEE69
:10251000B7FBFEFE7145D0D1691EC9B20F29CCD8D8
:10252000631EDBB2072BC8D800201680D1709070D4
:1025300001201371BDE8F08180F0FA023F420F00E4
:1025400038B5124C416A2268930043F4D013C1F8A5
:10255000A03002F1805302F16801456A03F52C5363
:10256000E83289009B00226041F00051084A436133
:10257000C5F8C01003F5D07103F56873C1619342CB
:10258000036202D9034800F0D5FF38BD5C5F00202C
:10259000FCB50040B076000841F250432DE9F0410F
:1025A000C35C88B004460F46022B16464CDC8E4AAC
:1025B00052F8231009B942F823008C4967600B7860
:1025C0002672C3B9FFF7D2FC894BD3F8EC2042F452
:1025D0008072C3F8EC20D3F8942042F48072C3F8E0
:1025E0009420D3F8942022F48072C3F8942001231D
:1025F0000B70FFF7C1FC41F24943E35C7BB9FFF785
:10260000B5FC41F250437B4AE35CD35CF3B1012B50
:1026100025D0012241F24943E254FFF7ADFCFFF718
:10262000A5FC626A936923F01003936100F088FFB0
:102630000546636A9A69100718D500F081FF401BB0
:10264000FA28F6D9FFF798FC0027C9E002211320E9
:1026500001F0CCFF0221152001F0C8FFD9E70221CB
:10266000142001F0C3FF02211620F5E79A6942F019
:1026700001029A6100F064FF0546636A9A69D10716
:1026800005D400F05DFF401BFA28F6D9DAE79A6915
:10269000002542F00202A8469A61636A5D65FFF771
:1026A0006BFC41F23C03E05800F0CCFD20220021FD
:1026B0006846FFF7A3FB02A8FFF73AFE05F5825331
:1026C0000DF1200C6A4608334CF8088D23449646D9
:1026D0000833BEE80300E64543F8080C43F8041C41
:1026E0007246F4D1DEF8000020351860B5F5806F31
:1026F0009EF804201A71D9D1002541F24843394689
:102700006A46E55441F24B432046ADF80050E5548B
:102710008DF802508DF803508DF80450FFF7BAFE83
:10272000D4F824E0074690B9DEF8183023F001030E
:10273000CEF8183000F004FF0546636A9B69DA079B
:1027400082D500F0FDFE401BFA28F6D97CE79DF803
:1027500003309DF802201B029DF80400BDF8001014
:1027600043EA4262090402430B430A4343EA00136B
:102770002046CEF81C20626AD360636AC3F8BC505E
:10278000FFF7DEFE41F251436FF04042E554636AC9
:102790001A65194A636A5A654FF00222636A9A659C
:1027A0004FF0FF32636AC3F8E0200322636A964267
:1027B000DA6515D0626A936923F00103936100F032
:1027C000BFFE0546636A9B69DB0705D500F0B8FECE
:1027D000401BFA28F6D937E7012241F24A43E25476
:1027E000384608B0BDE8F081505F0020585F0020F7
:1027F00000440258A8760008550200022DE9F04373
:1028000000F5A25989B0044616461F46002509F175
:102810001C0941F24C48202D4BD0636AD3F8D830C4
:10282000EB40D90743D505F1830304EB43131A7931
:1028300012073CD4D9F800200132C9F800201A79D7
:1028400042F008021A71D30729D541F24B43E35CE9
:102850002BB36846FFF772FD03AA04EB451303F59B
:10286000825303F1180C10331868083353F8041C12
:1028700096466345AEE803007246F5D1186869468E
:10288000CEF8000004F581501B791C308EF804301E
:102890000123CDE90067ADF80830FFF735FD54F8A6
:1028A000083023B141F27842A3580133A3500135D7
:1028B000B1E709B0BDE8F0832DE9F0478A468CB056
:1028C000044600F03FFE06460F46BAF1000F41D124
:1028D000636AD3F8A02012F4FE0F03D100200CB0DD
:1028E000BDE8F087D3F8A420920141BF41F27041C6
:1028F000625801326250D3F8A4205506EED0D3F8C6
:10290000A4306569C3F3052805EB08156846FFF791
:102910000FFDE9462B685A004ABF23F06042C3F31B
:102920008A4242F000429B0000920DF1030242BF36
:10293000009B43F080430093EB8803F00F038DF876
:102940000C30EB1D0F35AB4220D013F8011F02F8FD
:10295000011FF8E7BAF1010FC0D1636AD3F8B020C4
:1029600012F4FE0FBAD0D3F8B420900141BF41F267
:102970007041625801326250D3F8B4205106ADD094
:10298000D3F8B430A569C3F30528BDE7BAF1000F49
:102990001CD1636AC3F8A88004A807ADFFF7CEFC7A
:1029A00099E80F0007C504F581502B70002304A996
:1029B0001C30ADF81830CDE90467FFF7A5FC60B115
:1029C00041F26842A3580133A35088E7BAF1010FDE
:1029D000E2D1636AC3F8B880DEE741F26C420120BD
:1029E000A3580133A3507AE7F8B500F5A255044681
:1029F0000F4601260B3539462046FFF75DFF08B12B
:102A00002E70F8E741F24C43E35823B141F278428B
:102A1000A3580133A350F8BD436AF0B51B6CC3F350
:102A2000074323B300F5A35100230125043103F12B
:102A3000830200EB42121479A60715D5640713D45C
:102A40005C01466A04F58354D6F8CC70045905FA43
:102A500004F43C4208D0C6F8D440147944F004048D
:102A600014710A6801320A600133202BDFD1F0BDF6
:102A70002F4B70B51C56E3B2012B58D82D4D55F88D
:102A800023202D4BEAB953F8243001221A65102275
:102A90001A654FF480521A6570BD53F82460336D87
:102AA000DA0734D4336D5B0731D4336DD80636D4AE
:102AB000336D590633D455F82400BDE87040FFF754
:102AC000ABBF0029E9D053F82460336D9A0511D5C6
:102AD0004FF40073336500F035FD02460B4652EAB1
:102AE000030103D012F1FF3243F1FF3355F8240004
:102AF000FFF784FE336D9B01DDD54FF0007355F871
:102B000024200121336541F25143D154D3E70523F9
:102B1000002155F824003365FFF766FFC5E7502311
:102B2000012155F824003365FFF75EFFC3E770BD50
:102B3000AC760008505F0020D476000808B5FFF797
:102B400015FAFFF769FFBDE80840FFF715BA000066
:102B5000436AD3F8C00010F07C5005D0D3F8C4000D
:102B600080F40010C0F340507047000008B5FFF734
:102B7000FDF941F23C03C05800F076FBFFF7FCF989
:102B80001F288CBF0020012008BD000041F25142E7
:102B9000835C5BB1416A8B6923F001038B6141F275
:102BA000744143580133435000238354704700005D
:102BB0002DE9F84F90469946FFF7D8F900F5825372
:102BC00000224FF0010E083300F5A35702F18301F4
:102BD00000EB41110C7965070FD4E4060DD59E6911
:102BE000456A0EFA06F6D5F8CC40264205D0D3E960
:102BF00000ABCB4508BFC24507D301322033202AA2
:102C0000E4D1BDE8F84FFFF7B7B9C5F8D4600C7947
:102C100044F004040C71396801313960EDE70000BB
:102C2000F8B51E4600230F46054613701446FFF7FD
:102C30009DFF80F0010038701EB12846FFF788FF25
:102C40002070F8BD2DE9F74F0D469B460B780446E2
:102C5000164692F800A0019300F074FC2B78804691
:102C6000894613B93378002B46D042464B4620465E
:102C7000FFF79EFF2046FFF761FF2046FFF786FF24
:102C80005B46324629462046FFF7CAFF2B782BB118
:102C9000019B1BB1012003B0BDE8F08F337813B165
:102CA000BAF1000FF6D104F5A2570C37DDE90C2379
:102CB000994508BF90451FD23868E8B10368D968C4
:102CC000DDE90C23B2EB080263EB090388475B469E
:102CD000324629462046FFF7A3FF2B7813B1019B0C
:102CE000002BD7D1337813B1BAF1000FD2D100F055
:102CF00029FC80468946D9E70020CCE7002108B5A9
:102D00000846FFF7B5FEBDE8084001F027BB00000C
:102D100008B501210020FFF7ABFEBDE8084001F037
:102D20001DBB000008B500210120FFF7A1FEBDE892
:102D3000084001F013BB0000012108B50846FFF769
:102D400097FEBDE8084001F009BB00000FB4002069
:102D500004B0704770470000084A08B5136813F0C4
:102D6000010309D1064807494360836003730123C7
:102D70001360054A04F030FB014808BD605F002085
:102D8000645F0020552D0008F85F0020036863B1E0
:102D900059B18B4203D11B680360704713461A6810
:102DA0001AB19142FAD10A681A607047F8B50E4616
:102DB00009B3037BEBB90B7D012B06D1051D314611
:102DC0002846FFF7E3FF2C6804E0A3B900F10805EB
:102DD000F5E73C46204684B150F8087B3269317DE6
:102DE00000F012FA0028F4D021462846FFF7CEFF63
:102DF000EFE70320F8BD0220F8BDF8BDF8B50546A1
:102E00000C4609B90220F8BD01F1080000F0E8F90C
:102E10000028F7D02B7B5BBB237D012B0ED1043523
:102E20002E68A76976B1B3699F421FD050222169ED
:102E30003069FEF7C5FFC8B13668F2E7002BE1D173
:102E40000835EDE721462846FFF7A0FF2B688BB138
:102E50009A69BA420ED81A6812B19169B94203D977
:102E600022601C600020F8BD1346F4E70120F8BD85
:102E70000320F8BD23602C60F4E7000070470000D9
:102E800038B5FFF769FF037B0546002B30D11C4A9C
:102E90001C4C136813F0010311D1002000212360A2
:102EA00023754FF0FF33C4E90201A36101231649E2
:102EB000204613602161154A154904F08DFA114925
:102EC0002846FFF773FF98B90E4928460AA3D3E9AD
:102ED0000023C4E902230F4B236101232375A3615F
:102EE000FFF764FF20B907492846FFF787FF10B1B5
:102EF000094800F099F938BD401DA12026812A0B10
:102F0000745F0020785F00205C760008F85F002086
:102F10007D2E00083C7700082C770008F0B5037B75
:102F200089B006460F46002B4FD1324A324813680B
:102F300013F0010310D10360002403754FF0FF3339
:102F40002E49002583610123016113602C492D4A1C
:102F5000C0E9024504F040FA27493046FFF726FF52
:102F6000044600282FD108AD1AA3D3E9002365E950
:102F700008231AA3D3E90023284600F023F92846A2
:102F800018A3D3E9002300F01DF9284602AD17A3CA
:102F9000D3E9002300F016F98DF814401A4CDDE94E
:102FA0000023CDE90223194B04930FCD0FC4214612
:102FB000304641F81879FFF7F9FE20B9A4F118015D
:102FC0003046FFF71BFF09B0F0BD0320FBE700BF51
:102FD000AFF3008085E6535099C80DA8F1C6A7C18C
:102FE000D068080FA1FE276537FD46DDC4A0F43385
:102FF000C9C4D50A985F0020A05F00205C76000855
:103000007D2E0008F85F0020A85F0020847700086C
:1030100070B5FFF7A1FE037B0546002B32D1224A93
:10302000224C136813F0010311D10020002123600A
:1030300023754FF0FF33C4E90201A36101231C494A
:103040002046136021611B4A1B4904F0C5F917494A
:103050002846FFF7ABFEA8B9012614492846267575
:103060000FA3D3E90023C4E90223144B236140F2E8
:103070005513A361FFF79AFE20B90C492846FFF7C4
:10308000BDFE10B10E4800F0CFF8FFF765FE3146E7
:10309000FFF744FF0028F5D170BD00BFAFF30080FB
:1030A000F1C6A7C1D068080FC05F0020C85F00202C
:1030B0005C760008F85F00207D2E00086877000825
:1030C0002C77000870470000044A00230448054993
:1030D000C0E90023044A04F07FB900BF80841E00C9
:1030E000E85F0020C5300008F85F00201022094B7F
:1030F0001A701822084B1A701E22084B1A700122EF
:10310000074B1A701F22074B1A700022064B1A70C9
:10311000704700BFF45F0020F05F0020F15F0020E7
:10312000F25F0020F35F0020F55F002008B9FF2068
:10313000704701284FF6FF7018BF0020704700004D
:103140000B060022082130B5D0E9004562406B40F3
:1031500009A5D5E90045002A73F1000E08DA921896
:103160005B4162406B400139F5D1C0E9002330BDBD
:1031700092185B41F7E700BF9336EAA9EBE1F04212
:103180002DE973439046994602AD06460024D0E9E6
:103190000023D243DB4365E90223224640464946E9
:1031A0000834FDF789F8C1B22846FFF7C9FF402C63
:1031B000F3D1DDE90023D243DB43C6E9002302B0AB
:1031C000BDE87083D0B50446D0E90067FFF7D8FFAB
:1031D000204632463B46BDE8D040FFF7D1BF000055
:1031E00008B503460269007BFFF7A0FF80B2824268
:1031F00007D8986830B190F90000003018BF01205E
:1032000008BD002008BD000008B51346027B8A42B5
:1032100008D1502219468068FEF7D2FDB0FA80F03E
:10322000400908BD002008BD08B504F0DDF8000025
:1032300010B5037C044613B9006804F0EBF820468F
:1032400010BD00000023BFF35B8FC360BFF35B8F33
:10325000BFF35B8F8360BFF35B8F7047BFF35B8F00
:103260000068BFF35B8F704770B506460C30FFF700
:10327000F5FF044606F108052846FFF7EFFF8442F4
:1032800006D276682846FFF7E9FF3444201A70BD5D
:103290002846FFF7E3FFF9E770B505464068A0B19F
:1032A00005F10C0605F10800FFF7D8FF044630468B
:1032B000FFF7D4FF844204F1FF34304694BF6D68B9
:1032C0000025FFF7CBFF2C44201A70BD38B50C4603
:1032D0000546FFF7C9FFA04210D305F10800FFF72C
:1032E000BDFF6B682044BFF35B8FB0FBF3F403FBBF
:1032F0001400A8600120BFF35B8F38BD002038BDEB
:103300002DE9F041144680460D46FFF7C5FF844283
:1033100028BF0446DCB1474657F80C6B3846FFF728
:103320009DFF304428603846D8F80460FFF796FFC8
:10333000301AA0423DBF6860241AD8F8003001203E
:103340002FBF6C600220AB60EC60BDE8F0812046CE
:10335000BDE8F08138B50C460546FFF79DFFA04259
:1033600010D305F10C00FFF779FF6B682044BFF321
:103370005B8FB0FBF3F403FB1400E8600120BFF3A4
:103380005B8F38BD002038BD2DE9F04385B00026A5
:1033900088460746694601ADFFF7B2FF34468146CD
:1033A0004E4505F108050CDA08EB040155F8082C28
:1033B00055F80C0C0136FEF7F9FC55F8083C1C4496
:1033C000EEE721463846FFF7C5FF204605B0BDE8C9
:1033D000F0830000F8B506460C300F46FFF73EFFBD
:1033E00006F1080504462846FFF738FF84422846C0
:1033F00038BF7468FFF732FF201A386020B1346894
:103400002846FFF72BFF2044F8BD000073B5144693
:1034100006460D46FFF728FF8442019028BF044668
:10342000DCB101A93046FFF7D5FF019B33B9326803
:10343000AB60EB6085E8140001200CE0A34228603B
:1034400088BF01940198A0426860F5D23368241ABD
:103450000220AB60EC6002B070BD2046FBE70000CC
:103460002DE9FF4100240F466946FFF7CFFF2546AF
:10347000804644450BDA0DEBC4035DF8341078192F
:1034800001345E6832463544FEF790FCF1E7284689
:1034900004B0BDE8F081000038B50546FFF7E0FF55
:1034A000044601462846FFF711FF204638BD0000BC
:1034B000FEE7000000B59BB0EFF309816822684683
:1034C000FEF774FCEFF30583044B9A6BDA6A9A6A91
:1034D0009A6A9A6A9A6A9A6A9B6AFEE700ED00E025
:1034E00000B59BB0EFF3098168226846FEF75EFCE9
:1034F000EFF30583044B9A6B9A6A9A6A9A6A9A6AFE
:103500009A6A9B6AFEE700BF00ED00E000B59BB041
:10351000EFF3098168226846FEF748FCEFF3058364
:10352000034B5A6B9A6A9A6A9A6A9A6A9B6AFEE78E
:1035300000ED00E00FB408B5029801F071FFFEE75E
:1035400002F09EBB02F088BB30B50A44074D9142A1
:103550000BD011F8013B09245840013CF7D040F34F
:1035600000032B4083EA5000F7E730BD2083B8ED1D
:103570002DE9F047089E01F0070500EBD1004FF45C
:103580007F494FEAD60C2A4406F00706954201D13E
:10359000BDE8F08705F0070E06F0070A511BEC089E
:1035A000D6457746045D0CEBD60838BF574604FA7B
:1035B0000EF4C7F1080724FA0AF48F4228BF0F4619
:1035C00013F8081029FA07FE4C403D443E445FFAC8
:1035D0008EFE4EFA0AFE04EA0E04614003F808105B
:1035E000D4E700000246006848B1036811891360FF
:1035F000D38801339BB29942D38038BF138170477F
:1036000070B588B004460D46202200216846FEF7BA
:10361000F5FB20460495FFF7E5FF054660B16B46D4
:10362000044608AE1A46083403CAB24244F8080CED
:1036300044F8041C1346F5D1284608B070BD0000BC
:103640002DE9F041056885B90160BDE8F081002BE6
:1036500029DA930CB34229D1A54201D10D60F3E7D9
:10366000C8F800100C60BDE8F0814B68A8462C46F5
:1036700023F060474FEAD37EC3F3807CBE0C16EA8A
:10368000230638BF3E466368BEEBD37F23F060421B
:10369000DDD1974203D1C3F380739C450AD1974291
:1036A00005E01C46EFE7B24206D013469E422CBF0F
:1036B00000230123002BCFD12368A046002BF0D19B
:1036C0002160BDE8F08100002DE9F04106460F467B
:1036D00000254FF6FF7441F221082A46304639464C
:1036E000FCF7EAFD0823C0B284EA002414F4004F7A
:1036F0004FEA440403F1FF33A4B218BF84EA08047C
:1037000013F0FF03F2D10835402DE6D12046BDE885
:10371000F081000010B54B6833B9CA8A002063F30A
:103720000902CA82002110BDC4681A681C60C36007
:10373000438A013B43824A60EDE7000010B50A442A
:1037400041F22104914200D110BD11F8013B80EA01
:103750000320082310F4004F4FEA400003F1FF3329
:1037600080B218BF604013F0FF03F3D1EAE7000016
:103770002DE9F04F85B081469346BDF83C408DE879
:103780000A00002A00F0838024B10E9B002B7ED01B
:10379000072C2AD809F10C00FFF724FF054628B9A9
:1037A0006FF00205284605B0BDE8F08F1422002115
:1037B000FEF724FB22460E9905F10800FEF7F6FA03
:1037C000631C2C4429462B7409F11C009BF8003023
:1037D00003F01F0363F03F032372009B43F0004399
:1037E0006B600125FFF72CFFDCE7019B4FF0000821
:1037F0004FF0800A1B0A46464546029300F10C032F
:1038000003930398FFF7EEFE07460028C8D0142262
:103810000021FEF7F3FAC6BB9DF8043002223B728A
:103820009DF808307B72711E0E9B1944B4420AD970
:10383000B818013211F801EF0136D2B280F808E071
:10384000B6B2072AF2D19BF80010B44208BF4FF07D
:10385000400AB818013201F01F01013541EA481150
:1038600088F001082DB24AEA010339464FF0000AF8
:10387000037209F11C00009B3A7443F000437B6023
:10388000FFF7DEFEB442BCD18CE70022CBE76FF03D
:10389000010587E72DE9F0471E46CB8A9146804611
:1038A000C3F309020F46062A19D013460021B0B20D
:1038B0008DB25A1992B2052A09D9A84210D8FA8AAB
:1038C000034463F30902FA820120BDE8F087A842AD
:1038D000F3D919F801403A4401319476E8E700251C
:1038E000FB8A7C68C3F309001C23821FB2FBF3FA36
:1038F00003FB1A2A1FFA8AF27CB301212368002BEA
:1039000039D1B31F03441C20B3FBF0F301339BB246
:1039100099420CD2BAF1000F09D14046FFF762FE7E
:1039200008B1C0F800A0206008B304460022B6B277
:103930004FF0000AB54230D2691E13464944E018E0
:10394000013311F801EF01359BB280F804E0ADB20C
:103950001C2B14D0AE42F2D8ECE74046FFF742FEF3
:10396000044608B1002303607C60002CDED16FF0B8
:103970000200BDE8F08701311C4689B2BEE7AE42C5
:10398000D8D94046FFF72EFE08B1C0F800A020604D
:103990000028ECD004460022CCE7FB8AC3F30902DE
:1039A000164466F30903FB828EE70000F8B515465E
:1039B0000E462422002104461F46FEF71FFA069BEE
:1039C0006A090020636004F10C05079BA76023626D
:1039D0004FF6FF7320709A4228BF1A46034697B2EB
:1039E0009A4205D100232B6027826382A382F8BD0F
:1039F0002E60013335462036F2E7000003781BB90C
:103A00004BB2002BC8BF01707047000000787047B0
:103A10002DE9F7430D9E074619461046BDF828903C
:103A20000B9D9DF83040BDF8388016B9B8F1000FF5
:103A300040D11F2C3ED83B78D3B9B8F1070F36D808
:103A400039F0030336D1424631464FF6FF704FEA54
:103A50000929FFF773FE20F0010009F440794004C2
:103A600049EA0464400C44EA40244FF6FF730DE039
:103A700043EA0923B8F1070F43EA0464F5D9FFF7D5
:103A800023FE42463146FFF759FE03462A462146A9
:103A900038468DE84001FFF76BFE2B780133DBB22F
:103AA0001F2B88BF00232B7003B0BDE8F0836FF09D
:103AB0000300F9E76FF00100F6E700002DE9F74396
:103AC0000E9F81460B9D9DF830009DF83480BDF817
:103AD0003C6007B9AEBB1F2833D899F800E0BEF1AF
:103AE000000F31D00C029DF82810072E44F08004FE
:103AF00044EAC83444EA014444EA0E0444EA006457
:103B00001CD919461046FFF7DFFD32463946FFF74C
:103B100015FE034601962A46009721464846FFF7C0
:103B200027FEB8F1010F06D12B780133DBB21F2B32
:103B300088BF00232B7003B0BDE8F0834FF6FF73FE
:103B4000E8E76FF00100F6E76FF00300F3E700002D
:103B5000C06900B104307047C3691A68C261C268A5
:103B60001A60C360438A013B438270472DE9F047E6
:103B7000D0F818A0054616461F465446DFF8688060
:103B80004FF000090CB9BDE8F087D4E90223B21A5E
:103B900067EB0303994508BF904523D2AB692146E3
:103BA00028469C420FD1FFF7B5FDAB691B68AB619E
:103BB000EB6823606B8AEC60013BAC696B82234647
:103BC000A2461C46DEE7FFF7A5FD2368CAF80030D1
:103BD000EB6823606B8AEC605446013B6B82DAF839
:103BE0000030EDE72368EBE780841E002DE9F04FFD
:103BF0008BB00E46144683460793DDF850800028AC
:103C000000F01081B8F1000F00F00C81531E3F2B23
:103C100000F20881012A03D1079B002B40F00281AA
:103C2000BBF814500023ED0008930993AE4204D36F
:103C3000002630460BB0BDE8F08F33199D42DBF80B
:103C40000C3036BFAD1B2546EDB223B9DBF8103082
:103C5000002B00F093802F2E64D8C6F1300700238C
:103C60003146BD42009308ABDBF808002CBFFFB221
:103C70002F46A5EB07093E443A465FFA89F9FFF75C
:103C800077FCBBF81430302103F10053063BDB0016
:103C90000493DBF80C300393039B13B1B9F1000FCD
:103CA00043D1DBF8100040B1B9F1000F05D008ABEB
:103CB0004A46711A0097FFF75BFC2EB2002DB7D071
:103CC00060070AD00AAB624203EBD40102F007029C
:103CD00011F8083C134101F8083C082C55D9102C68
:103CE00055D9202C8CBF08230423079A002A00F002
:103CF0009F80B4EBC30F00F09E80082C49D89DF83C
:103D00002030621E23FA02F2D10706D54FF0FF32AF
:103D100002FA04F423438DF820309DF8203088F80F
:103D2000003086E7A9460027ABE7049BE02B28BFBD
:103D3000E02306930B44B342059316D9A3EB060A7E
:103D400000970398711AD14508AB00F104002CBF0D
:103D50005FFA8AFACA465744A9EB0A095644524602
:103D6000FFB25FFA89F9FFF703FC049B069A0599F5
:103D70009B1A0493039B1B6803938DE700932A46C9
:103D800008AB3146DBF8080095E70123ADE70223D5
:103D9000ABE7102C12D8BDF82030621E23FA02F2D5
:103DA000D20706D54FF0FF3202FA04F42343ADF8F0
:103DB0002030BDF82030A8F800303AE7202C0FD88A
:103DC000089A631E22FA03F3DB0705D54FF0FF3391
:103DD00003FA04F414430894089BC8F8003028E759
:103DE000402C22D0621EDDE908AB50465946FCF754
:103DF00063FA002100F0010050EA01030DD02246D1
:103E000001200021FCF764FA404261EB410140EAE5
:103E10000A0041EA0B01CDE90801DDE90823C8E900
:103E2000002306E76FF0010603E76FF0080600E7DE
:103E3000012C3FF472AF082C7FF66FAF102CB8D96D
:103E4000202CEAD8C8E70000402A30B585B01FD83A
:103E5000002A08BF01220024012A0294039419D1E8
:103E60001B788DF8083053070AD004AB544203EB9B
:103E7000D20504F0070415F8083CA34005F8083CF7
:103E800000910346002102A8FFF772FB05B030BD88
:103E90004022E0E7082AE3D9102A03D81B88ADF8AE
:103EA0000830E0E7202A02D81B680293DBE7D3E959
:103EB0000045CDE90245D6E710B5CB681BB98B604C
:103EC0000B618B8210BDC4681A681C60C360438A92
:103ED000013B4382CA60F0E72DE9F04FD1F8009032
:103EE0008FB004460D46C9F3C016CDE90223002E5B
:103EF00050D0C9F3C03AC9F30626B9F1000F80F2D9
:103F0000CB8119F0C04F40F0C7812B7B002B00F014
:103F1000C381BAF1020F03D02278B24240F0BF81D0
:103F200009F07F02BAF1020F059236D119F07F0F26
:103F3000C9F30F2B01D10BF0030B2B447606059A26
:103F400046EA0A4693F8038046EA82465FEAD813B7
:103F500046EA0B06049300F0A180002200230EA97C
:103F60006768204661E90823059B5A46009353463B
:103F7000B847002800F08F80A7698FB9314604F157
:103F80000C00FFF73DFB0746D0B96FF002000FB001
:103F9000BDE8F08F4FF0020AAFE7C9F3074BCCE75B
:103FA0003B699E420DD03F68002FF9D1314604F1A4
:103FB0000C00FFF725FB07460028E6D0A3693B600D
:103FC000A761DDE90601FFF77FFBB882F97D08F004
:103FD0001F06C9F30469C1F38401711A89B20FFA8B
:103FE00081FEBEF1000FD7E90223BCBF01F1200E14
:103FF0000FFA8EFE52EA030100F05D81DDE9020155
:10400000801A61EB03010246B6480B460021994233
:1040100008BF9042C0F04F81049B002B48D0BEF1F6
:10402000010F00F3488118F0400F41D0002106A88D
:10403000DDE90223C7E902232022FDF7DFFEADF808
:104040002EB08DF830A006A98DF8316020468DF88D
:104050003290DDE90223CDE906232B1D08932B7B4B
:10406000013BDBB2ADF82C309DF814308DF83330C5
:10407000A3689847FB7DC3F38402013262F3860391
:10408000FB75FB8A6FF30903FB821B0A6FF3C713EF
:10409000FB7500207BE76FF00B0078E7A76917B985
:1040A0006FF00C0073E73B699E428FD03F68F6E7E4
:1040B000FB7DC8F34012B2EBD31F40F0F380C3F393
:1040C0008403B34240F0F18004994FEA98122B7BAD
:1040D00000293BD012F001085CD1032B40F2E880AC
:1040E000AE1D394604F10C00DDE90223C7E90223C5
:1040F0002B7B3246033BDBB2FFF7CCFB002814DA04
:1041000039462046FFF706FBFB7DC3F384020132EC
:1041100062F38603FB75FB8A68F30903FB821B0AC3
:1041200068F3C713FB75032031E7AB883B832A7B19
:10413000033AD2B2B88A3146FFF700FBFB7DB88262
:10414000DA43C2F3C01262F3C713A1E712BB2E1DFC
:10415000013B394604F10C00DBB23246FFF79AFB13
:10416000002814DA39462046FFF7D4FAFB7DC3F362
:104170008402013262F38603FB75049AFB8A62F3C0
:104180000903FB821B0A049A62F3C713CAE72A7B5E
:10419000013ACEE7F98A013BC1F30901DAB20529F8
:1041A0005AD8281D00239A420AD907EB010E013183
:1041B00010F801CB013306298EF81AC0DBB2F2D118
:1041C000DDE902019342CDE9060107F11A0134BF8E
:1041D00004330023089138BF5B1979680A93099169
:1041E000291DFB8AADF82EB0C3F309038DF830A06A
:1041F0008DF831601A449DF814308DF832908DF8A6
:1042000033300023ADF82C207B602A7BB88A013A3A
:10421000FFF794FA3B8BB882834203D1A36806A9C7
:1042200020469847204606A9FFF746FEFB7DB88A40
:10423000C3F38402013262F38603FB75FB8A6FF3DA
:104240000903FB821B0A6FF3C713FB753B8B984274
:1042500014BF112000209AE6D7F804E0BEF1000F49
:1042600018D00623DEF8000088B9C91A05F1040841
:1042700000EB010CC3B2BCF11B0FA1D893429FD23B
:1042800018F8013BF44401308CF80430F0E71C339B
:104290008646E7E7734693E76FF0090077E66FF02D
:1042A0000A0074E66FF00D0071E66FF00E006EE626
:1042B0006FF00F006BE6FB7D3946204668F38603FE
:1042C0006FF3C713FB75FFF725FA049B002B7FF4F0
:1042D000AAAEFB7DC3F38402013262F38603FB7551
:1042E000DEE600BF80841E00EFF3098305496833D2
:1042F0004A6822F001024A6083F30988002383F3AD
:104300001188704730EF00E0202080F3118862B6FA
:104310000D4B0E4AD96821F4E0610904090C0A43E7
:104320000B49DA60CA6842F08072CA60094A0A49D9
:10433000C2F8B01F116841F0010111601022DA7754
:1043400083F82200704700BF00ED00E00003FA058B
:10435000F0ED00E0001000E055CEACC510B5202314
:1043600083F311880E4B5B6813F4006314D0F1EEF5
:10437000103AEFF309844FF08073683CE361094B16
:10438000DB68236684F3098800F0FEFF10B1064B5A
:10439000A36110BD054BFBE783F3118810BD00BF7F
:1043A00000ED00E030EF00E04B0700084E0700088A
:1043B000002304491A465A50C81808334260802B1B
:1043C000F9D17047FC5F0020026843681143016027
:1043D00003B1184770470000024A136843F0C00356
:1043E000136070470044004013B50E4C204600F0A7
:1043F000A9FA04F11400009400234FF400720A4952
:1044000000F06AF90094094B4FF40072084904F176
:10441000380000F0E3F9074BE365074B236602B071
:1044200010BD00BF7C600020E8600020D943000878
:10443000E86200200044004000E1F505254B00291A
:1044400008BF1946037C012B30B511D1224B98428D
:104450000ED1224BD3F8E82042F40032C3F8E82012
:10446000D3F8102142F40032C3F81021D3F81031F0
:104470000A68036EC46D03EB52038166B3FBF2F36B
:104480004A68150442BF23F0070503F0070343EA17
:104490004503E3608B6843F040036360CB685105DC
:1044A00043F00103A36042F4967343F001032360D9
:1044B0004FF0FF33236205D512F0102205D0B2F180
:1044C000805F04D080F8643030BD7F23FAE73F235B
:1044D000F8E700BFA07700087C6000200044025885
:1044E0002DE9F047C66D05463768F4692007346248
:1044F0001AD014F0080F0CBF00218021E20748BF3A
:1045000041F02001A3074FF0200348BF41F04001D4
:10451000600748BF41F4807183F31188281DFFF7BD
:1045200053FF002383F31188E2050AD5202383F388
:1045300011884FF40071281DFFF746FF002383F315
:1045400011884FF020094FF0000A14F0200831D1F3
:104550003B0616D54FF0200905F1380A200610D584
:1045600089F31188504600F06DF900282FDA0821F0
:10457000281DFFF729FF27F080033360002383F312
:10458000118879060DD562060BD5202383F3118897
:10459000EA6C2B6D9A4201D12B6CEBB9002383F3AB
:1045A0001188E30620D5AA6E1369EBB15069BDE806
:1045B000F047184789F31188736A284695F8641004
:1045C000194000F0D9F98AF31188F469BDE7B062A7
:1045D00088F31188F469C1E727F040071021281DEE
:1045E000FFF7F2FE3760D9E7BDE8F08700F16043DE
:1045F00000F01F020901400903F56143C9B28000C0
:1046000083F80013012300F16040934000F56140FE
:10461000C0F8803103607047F8B5154682680446DB
:104620000B46AA4200D28568A1692669761AB5426E
:1046300007D218462A46FDF7B9FBA3692B44A361AC
:104640000DE011D9AF1B32461846FDF7AFFB3A46D5
:10465000E1683044FDF7AAFBE2683A44A261A3682E
:1046600028465B1BA360F8BD18462A46FDF79EFB53
:10467000E368E4E7836893422DE9F04104460F467E
:10468000154600D2856860692669361AB54207D298
:104690002A463946FDF78AFB63692B4463610EE0C5
:1046A00013D9A5EB060832463946FDF77FFB424693
:1046B000B919E068FDF77AFBE26842446261A368D9
:1046C00028465B1BA360BDE8F0812A463946FDF70A
:1046D0006DFBE368E2E7000010B50A440024C36103
:1046E000029B006040608460C16081614161026141
:1046F000036210BD08B582694369934201D18268A3
:1047000082B98268013282605A1C42611970426922
:1047100003699A4201D3C3684361002100F00EFF90
:10472000002008BD4FF0FF3008BD000070B5202309
:1047300004460E4683F31188A568A5B1A368A26953
:10474000013BA360531CA36115782269934224BFE7
:10475000E368A361E3690BB120469847002383F324
:104760001188284670BD3146204600F0D7FE00284B
:10477000E2DA85F3118870BD2DE9F74F05460F4643
:1047800090469A46D0F81C90202686F311884FF068
:10479000000B144664B1224639462846FFF73CFF19
:1047A000034668B95146284600F0B8FE0028F1D00B
:1047B000002383F31188A8EB040003B0BDE8F08F59
:1047C000B9F1000F03D001902846C847019B8BF335
:1047D0001188E41A1F4486F31188DBE7C160816108
:1047E00041611144C361009B0060406082600161CF
:1047F00003627047F8B504460E461746202383F33C
:104800001188A568A5B1A368013BA36063695A1C20
:1048100062611E70236962699A4224BFE368636122
:10482000E3690BB120469847002080F31188F8BD5A
:104830003946204600F072FE0028E2DA85F311883E
:10484000F8BD0000836942699A4210B501D18268BF
:104850007AB98268013282605A1C82611C780369CD
:104860009A4201D3C3688361002100F067FE2046AD
:1048700010BD4FF0FF3010BD2DE9F74F05460F4634
:1048800090469A46D0F81C90202686F311884FF067
:10489000000B144664B1224639462846FFF7EAFE6B
:1048A000034668B95146284600F038FE0028F1D08A
:1048B000002383F31188A8EB040003B0BDE8F08F58
:1048C000B9F1000F03D001902846C847019B8BF334
:1048D0001188E41A1F4486F31188DBE702684368F5
:1048E0001143016003B11847704700001430FFF70F
:1048F00043BF00004FF0FF331430FFF73DBF00000F
:104900003830FFF7B9BF00004FF0FF333830FFF702
:10491000B3BF00001430FFF709BF00004FF0FF31B4
:104920001430FFF703BF00003830FFF763BF00000B
:104930004FF0FF323830FFF75DBF000000207047B6
:10494000FFF752BD044B0360002343608360C360E4
:1049500001230374704700BFB877000810B5202307
:10496000044683F31188FFF769FD022323740023B3
:1049700083F3118810BD000038B5C36904460D46A5
:104980001BB904210844FFF7A9FF294604F11400CC
:10499000FFF7B0FE002806DA201D4FF48061BDE865
:1049A0003840FFF79BBF38BD026843681143016080
:1049B00003B118477047000037B5446B41F6A405B2
:1049C00063591A681178042914D1217C022911D164
:1049D0001979012312898B4013420BD101A904F1EB
:1049E0004C0002F0A7F864590246019B2179206827
:1049F00000F0ECF903B030BD143002F02BB8000029
:104A00004FF0FF33143002F025B800004C3002F0B4
:104A1000FDB800004FF0FF334C3002F0F7B8000053
:104A2000143001F0F9BF00004FF0FF31143001F0F5
:104A3000F3BF00004C3002F0C9B800004FF0FF3265
:104A40004C3002F0C3B8000070B541F6A40605462C
:104A5000825913681978042901D0012070BD017CA6
:104A60000229FAD1127901205C8990400440F4D1E6
:104A700005F1140001F08AFF02460028EDD0AD597F
:104A80004FF440732868697900F08EF9204670BDB4
:104A9000406BFFF7D9BF000000207047704700004F
:104AA0007FB5124B012504260446036000230574DC
:104AB00000F18402436029468360C3600C4B02907E
:104AC000143001934FF44073009601F03BFF094B03
:104AD00004F694422946019304F14C004FF44073CC
:104AE0000294009602F002F804B070BDE07700086E
:104AF000914A0008B94900080A68202383F3118805
:104B00000B790B3342F823004B79133342F823001F
:104B10008B7913B10B3342F8230041F6A403C15043
:104B200002230374002383F31188704738B5037F91
:104B3000044613B190F85430ABB90125201D022171
:104B4000FFF732FF04F1140025776FF0010100F048
:104B500001FD84F8545004F14C006FF00101BDE8F0
:104B6000384000F0F7BC38BD10B5012104460430D0
:104B7000FFF71AFF0023237784F8543010BD00009C
:104B800038B504460025143001F0F4FE04F14C0061
:104B9000257701F0C3FF201D84F854500121FFF751
:104BA00003FF2046BDE83840FFF74EBF90F8803045
:104BB00003F06003202B19D190F88120212A0AD01C
:104BC000222A4FF000030ED0202A0FD1084A426754
:104BD0000722826704E0064B4367072383670023AD
:104BE000C3670120704743678367F9E70020704778
:104BF0002423002073B541F6A405044643591A68DE
:104C00001178042919D1017C022916D119790123BF
:104C100012898B40134210D100F14C06304602F04D
:104C20003DF850B101A9304601F084FF64590246B5
:104C3000019B2179206800F0C9F802B070BD000026
:104C400001F10B03F7B550F8234005460E46F4B1C9
:104C5000202383F3118805EB8607201D08214C349F
:104C6000FFF7A2FEFB685B691B6813B1204601F0E9
:104C70006FFF01A9204601F05DFF024648B1019B8C
:104C80003146284600F0A2F8002383F3118803B0D0
:104C9000F0BDFB685A691268002AF5D01B8A013BF7
:104CA0001340F1D105F18002EAE70000133138B575
:104CB00050F82140E4B1202383F3118841F6A40386
:104CC000E2581368527903EB8203DB689B695D68E5
:104CD00045B104216018FFF767FE294604F114006E
:104CE00001F05EFE2046FFF7AFFE002383F311883C
:104CF00038BD00007047000001F056B9012300F1F3
:104D0000300200F1500103700023436042F8043B7D
:104D10008A42D361FAD103814381704738B5044692
:104D2000202383F31188002500F10C0300F13002E9
:104D3000416043F8045B9342FBD1204601F056F9F1
:104D40000223237085F3118838BD000070B500EB95
:104D50008103054650690E461446DA6018B11022E8
:104D60000021FDF74BF8A06918B110220021FDF7D2
:104D700045F831462846BDE8704001F049BA0000C8
:104D8000038900F13002002103F00103038143890C
:104D900003F00103438100F1100343F8041B934225
:104DA000FBD101F0CDBA0000F0B4012500EB810485
:104DB00047898D40E4683D43A46945812360002311
:104DC000A2606360F0BC01F0E9BA0000F0B4012514
:104DD00000EB810407898D40E4683D4364690581E7
:104DE00023600023A2606360F0BC01F061BB00009F
:104DF000022300F10C0200F1300110B503700446EB
:104E00000023A0F8883080F88A3080F88B30038146
:104E1000438142F8043B8A42FBD184F8703020463B
:104E200001F08AF963681B6823B120460021BDE8C0
:104E30001040184710BD0000037880F88C3005231F
:104E4000037043681B6810B504460BB104219847F2
:104E500000232381638110BD436890F88C201B6878
:104E600002700BB1052118477047000090F87030B0
:104E700070B5044613B1002380F8703004F180024D
:104E8000204601F081FA63689B6863BB94F8805008
:104E900015F0600615D194F8813005F07F0545EADC
:104EA000032540F202339D4200F00E815BD8022DB3
:104EB00000F0DC803FD8002D00F08780012D00F04D
:104EC000CF800021204601F019FD0021204601F08D
:104ED00009FD63681B6813B1062120469847062325
:104EE00084F8703070BD204698470028CED094F8E2
:104EF000872094F8863043EA0223A26F934238BF9A
:104F0000A36794F98030A56F002B4FF0200380F247
:104F1000FD80002D00F0EC80092284F8702083F3DE
:104F200011880021A36F626F2046FFF74FFF002317
:104F300083F3118870BDB5F5817F00F0B180B5F5C0
:104F4000407F49D0B5F5807FBBD194F88230012BEA
:104F5000B7D1B4F8883023F00203A4F8883066672C
:104F6000A667E667C3E740F201639D421ED8B5F528
:104F7000C06F3BD2B5F5A06FA3D1B4F88030B3F5C4
:104F8000A06F0ED194F88230204684F88A3001F068
:104F900031F963681B6813B1012120469847032348
:104FA000237000236367A367E367A0E7B5F5106F7D
:104FB00032D040F602439D4252D0B5F5006F80D109
:104FC00004F18B036367012324E004F18803E567A0
:104FD00063670223A3678AE794F88230012B7FF48A
:104FE00070AFB4F8883043F00203B6E794F8852038
:104FF0002046616894F884304D6843EA022394F8AF
:10500000831094F88220A84700283FF45AAF4368E1
:1050100063670368A367A4E72378042B10D12023D8
:1050200083F311882046FFF7ABFE86F3118863688F
:10503000032184F88B601B6821700BB120469847D0
:1050400094F88230002BACD084F88B30042323708A
:1050500063681B68002BA4D0022120469847A0E774
:10506000374B63670223A36700239DE794F88410FE
:10507000204611F0800F01F00F010ED001F076F9FB
:10508000012806D002287FF41CAF2E4BA06763676F
:1050900067E72D4BA567636763E701F059F9EFE711
:1050A00094F88230002B7FF40CAF94F8843013F026
:1050B0000F013FF476AF1A06204602D501F036FC08
:1050C0006FE701F027FC6CE794F88230002B7FF447
:1050D000F8AE94F8843013F00F013FF462AF1B0672
:1050E000204602D501F00AFC5BE701F0FBFB58E724
:1050F000142284F8702083F311882B462A4629460F
:105100002046FFF751FE85F3118870BD5DB1152271
:1051100084F8702083F311880021A36F626F20460A
:10512000FFF742FE03E70B2284F8702083F3118817
:105130002B462A4629462046FFF748FEE3E700BFF4
:1051400010780008087800080C78000838B590F846
:1051500070300446152B29D8DFE803F03E282828B4
:1051600028283E28280B29392828282828282828B4
:105170003E3E90F8871090F88620836F42EA012225
:105180009A4214D9C268128AB3FBF2F502FB1535B4
:105190006DB9202383F311882B462A462946FFF751
:1051A00015FE85F311880A2384F8703038BD142366
:1051B00084F87030202383F31188002320461A4698
:1051C0001946FFF7F1FD002383F3118838BDC36F43
:1051D00003B198470023E7E7002101F08FFB00218E
:1051E000204601F07FFB63681B6813B1062120464F
:1051F00098470623D8E7000090F87020152A38B5A4
:10520000044622D80123934040F6416213421DD147
:1052100013F480150FD19B0217D50B2380F8703043
:10522000202383F311882B462A462946FFF7CEFD1B
:1052300085F3118838BDC3689B695B682BB9C36F60
:1052400003B19847002384F8703038BD002101F085
:1052500055FB0021204601F045FB63681B6813B134
:105260000621204698470623EDE70000024B002266
:105270001B605B609A607047E864002000238268CE
:105280000374054B1B6899689142FBD25A6803600E
:105290004260106058607047E864002008B5202321
:1052A00083F31188037C032B05D0042B0DD02BB97D
:1052B00083F3118808BD436900221A604FF0FF3361
:1052C0004361FFF7DBFF0023F2E790E80C001A6070
:1052D00002685360F2E70000002382680374054B04
:1052E0001B6899689142FBD85A680360426010605D
:1052F00058607047E8640020054B19690874186805
:10530000026853601A60186101230374FBF708BA3E
:10531000E86400204B1C30B5054687B00A4C10D01D
:10532000236901A8094A00F031F92846FFF7E4FF94
:10533000049B13B101A800F07BF92369586907B0F9
:1053400030BDFFF7D9FFF8E7E86400209D52000860
:1053500038B50C4D044641612B6981689A689142C9
:1053600003D8BDE83840FFF789BF1846FFF7B4FF00
:1053700001232C61014623742046BDE83840FBF729
:10538000CFB900BFE8640020044B1A681B6990681D
:105390009B68984294BF002001207047E864002079
:1053A00010B5084C236820691A68546022600122F5
:1053B00023611A74FFF790FF01462069BDE8104091
:1053C000FBF7AEB9E864002008B5FFF7DDFF18B1C0
:1053D000BDE80840FFF7E4BF08BD0000FEE700009D
:1053E00010B50C4CFFF742FF00F0C2F880220A49CA
:1053F000204600F047F8012344F8180C0374FEF728
:1054000083FF002383F3118862B60448BDE810408F
:1054100000F05AB810650020147800081C780008C5
:1054200008B572B6034B586200F0F2FB00F0A8FC1E
:10543000FEE700BFE864002000F034B9EFF311800C
:1054400020B9EFF30583202282F311887047000012
:1054500010B558B9EFF30584C4F3080414B180F310
:10546000118810BDFFF7B0FF84F3118810BD000054
:10547000034B59685A68521A9042FBD8704700BFD4
:10548000001000E082600222027400224274704721
:105490008368A3F17C0243F80C2C026943F83C2C8E
:1054A000426943F8382C074A43F81C2CC268A3F120
:1054B000180043F8102C022203F8082C002203F8ED
:1054C000072C70473907000810B5202383F3118893
:1054D000FFF7DEFF00210446FFF73AFF002383F3C6
:1054E0001188204610BD0000024B1B6958610F2037
:1054F000FFF702BFE8640020202383F31188FFF741
:10550000F3BF000008B50146202383F3118808206B
:10551000FFF700FF002383F3118808BD49B1064B54
:1055200042681B6918605A60136043600420FFF7EB
:10553000F1BE4FF0FF307047E864002003689842E6
:1055400006D01A680260506018465961FFF796BE8F
:105550007047000038B504460D462068844200D1EB
:1055600038BD036823605C604561FFF787FEF4E7A0
:10557000054B03F114025A619A614FF0FF32DA6170
:1055800000221A62704700BFE8640020F8B5274F78
:105590000D4603610446C2603E4601F0B7FB3B4640
:1055A000022D294653F8142F38BF02219A421D4676
:1055B0000AD1386208447C61BC6122606260A160EB
:1055C000BDE8F84001F08CBBD7F820E0A0EB0E035B
:1055D0005F181FD300279068834217D8376AAA4202
:1055E0001F44376201D0C01A906073699A68914273
:1055F00019D85A682360626014605C60A160986882
:10560000411A99604FF0FF33F361F8BD97601B1AA0
:105610001268E0E793689F4203D20EEB070001F0A7
:105620006FFB3946E1E7891A1B68DFE7E864002071
:1056300038B51B4B01685A691D46904203F11402AC
:105640000CD0446821600021036893425C60C16013
:1056500025D09A6881680A449A6038BD59614A60C9
:1056600000215B69C160934203D1BDE8384001F07D
:1056700041BB9A6881680A449A602C6A01F046FB33
:105680006A69001B9268824209D9111A012998BFE0
:10569000821C286ABDE83840104401F031BB38BD97
:1056A000E86400202DE9F84F204C0027656904F1DB
:1056B0001406B84601F02AFB236AA0EB030AAB6884
:1056C00053451DD84FF02009236AAA68D5F80CB0BD
:1056D00013442362AB68AAEB030A2B68B3425E60F3
:1056E0006361EF6001D101F005FB88F3118828693F
:1056F000D84789F311886569AB689A45E4D2D9E740
:105700006369B34210D020629A68A2EB0A029A60E1
:10571000226AAB68821A9B1A022B2CBFC018023077
:10572000BDE8F84F01F0ECBABDE8F88FE86400205E
:1057300000207047FEE70000704700004FF0FF3088
:1057400070470000022906D0032906D00129064827
:1057500018BF0020704705487047032A9ABF0448C5
:1057600000EBC2000020704708790008BC780008F0
:105770002C23002070B59AB006460846144601ADA9
:10578000294600F095F82846FCF730FBC0B2431CD0
:105790005B0086E8180023700323023404F8013C00
:1057A00000231946DAB20234904201D81AB070BD13
:1057B000EA5C013304F8011C04F8022CF2E7000053
:1057C00008B5202383F311880348FFF713FA002359
:1057D00083F3118808BD00BFA066002010B5044601
:1057E000052916D8DFE801F016150316161D20232B
:1057F00083F311880E4A0121FFF7A8FA20460D4ACB
:105800000221FFF7A3FA0C48FFF7BAF9002383F34C
:10581000118810BD202383F311880748FFF786F90C
:10582000F4E7202383F311880348FFF79DF9EDE7A0
:105830003C78000860780008A066002038B50C4D60
:105840000C4C2A460C4904F10800FFF793FF05F1C0
:10585000CA0204F110000949FFF78CFF05F5CA726E
:1058600004F118000649BDE83840FFF783BF00BFC8
:10587000787F00202C2300208C7800089678000880
:10588000A178000870B5044608460D46FCF7AEFA4C
:10589000C6B22046013403780BB9184670BD3246B3
:1058A0002946FCF78DFA0028F3D1012070BD0000D5
:1058B0002DE9F04704460D46FCF798FA2B49C6B28D
:1058C0002046FFF7DFFF08B10A36F6B22849204626
:1058D000FFF7D8FF08B11036F6B2632E0BD8DFF809
:1058E0008C80DFF88C90234FDFF894A0267846B99F
:1058F0002E70BDE8F08721462846BDE8F04701F04C
:1059000051BE252E2ED1072241462046FCF758FADB
:1059100070B9194B2A4603F1100153F8040B8B425E
:1059200042F8040BF9D11B78073411351370DDE709
:10593000082249462046FCF743FA98B9AA1C0F4BA7
:1059400013F8011F023209095345C95D02F8041C0E
:10595000197801F00F01C95D02F8031CF0D1183568
:105960000834C3E72E7001340135BFE728790008F9
:10597000A17800084279000830790008FFE7F11F9C
:105980000BE8F11FBFF34F8F044B1A695107FCD18D
:10599000D3F810215207F8D1704700BF0020005201
:1059A00008B50D4B1B78ABB9FFF7ECFF0B4BDA6872
:1059B000D10704D50A4A5A6002F188325A60D3F8F6
:1059C0000C21D20706D5064AC3F8042102F1883219
:1059D000C3F8042108BD00BFD6810020002000527A
:1059E0002301674508B5114B1B78F3B9104B1A69B1
:1059F000510703D5DA6842F04002DA60D3F810218B
:105A0000520705D5D3F80C2142F04002C3F80C210F
:105A1000FFF7B8FF064BDA6842F00102DA60D3F80C
:105A20000C2142F00102C3F80C2108BDD6810020F0
:105A3000002000520F289ABF00F58060400400202B
:105A4000704700004FF4003070470000102070478E
:105A50000F2808B50BD8FFF7EDFF00F500330268FB
:105A6000013204D104308342F9D1012008BD002065
:105A700008BD00000F2810B504463FD8FFF782FF8D
:105A8000FFF78EFF1E484FF0FF33072C4361C0F82D
:105A900014311DD80361FFF775FF230243F024037F
:105AA000C360C36843F08003C36003695A07FCD432
:105AB000FFF768FF2046FFF7BDFF4FF4003100F00D
:105AC0003BF9FFF78FFF2046BDE81040FFF7C0BF4E
:105AD000C0F81031FFF756FFA4F108031B0243F092
